:100000000C942A000C9463010C948C010C949B01B9
:100010000C9447000C94ED010C9447000C9447009D
:100020000C9447000C94C4010C9447000C944700B6
:100030000C9447000C9447000C9447000C94470024
:100040000C9447000C9447000C9447000C94470014
:100050000C94470011241FBECFE5D8E0DEBFCDBF12
:1000600010E0A0E6B0E0E4E9F4E002C005900D92F3
:10007000A437B107D9F720E0A4E7B0E001C01D9292
:10008000A438B207E1F70E9449000C9448020C948E
:1000900000000E944E01FFCF982F96959695969559
:1000A000953008F0F9C08770613031F008F4A4C0D1
:1000B000623009F451C0EFC09130C1F028F09230A5
:1000C00039F19330B9F1E7C04AB321E030E0B9012A
:1000D00002C0660F771F8A95E2F7CB018095942FB7
:1000E00098239ABB9BB389238BBBD5C047B321E030
:1000F00030E0B90102C0660F771F8A95E2F7CB01A5
:100100008095942F982397BB98B3892388BBC3C04D
:1001100044B321E030E0B90102C0660F771F8A9531
:10012000E2F7CB018095942F982394BB95B3892354
:1001300085BBB1C041B321E030E0B90102C0660F18
:10014000771F8A95E2F7CB018095942F982391BB76
:1001500092B3892382BB9FC09130C1F028F09230C6
:1001600039F19330B9F197C04AB321E030E0B901D9
:1001700002C0660F771F8A95E2F7CB01962F909504
:1001800094239ABB9BB3892B8BBB85C047B321E0DB
:1001900030E0B90102C0660F771F8A95E2F7CB0104
:1001A000962F9095942397BB98B3892B88BB73C0E7
:1001B00044B321E030E0B90102C0660F771F8A9591
:1001C000E2F7CB01962F9095942394BB95B3892B9E
:1001D00085BB61C041B321E030E0B90102C0660FC8
:1001E000771F8A95E2F7CB01962F9095942391BBC8
:1001F00092B3892B82BB4FC09130C1F028F092306E
:1002000039F19330B9F147C04BB321E030E0B90187
:1002100002C0660F771F8A95E2F7CB01962F909563
:1002200094239BBB9AB3892B8ABB35C048B321E08A
:1002300030E0B90102C0660F771F8A95E2F7CB0163
:10024000962F9095942398BB97B3892B87BB23C097
:1002500045B321E030E0B90102C0660F771F8A95EF
:10026000E2F7CB01962F9095942395BB94B3892BFD
:1002700084BB11C042B321E030E0B90102C0660F77
:10028000771F8A95E2F7CB01962F9095942392BB26
:1002900091B3892B81BB089582E008950F931F933A
:1002A000CF93DF93C0E6D0E004E710E06981888156
:1002B0000E944C002296C017D107C1F7DF91CF9161
:1002C0001F910F9108951F920F920FB60F92112454
:1002D0002F933F934F935F936F937F938F939F934E
:1002E000AF93BF93EF93FF93E0917700F091780085
:1002F000309709F00995FF91EF91BF91AF919F91D0
:100300008F917F916F915F914F913F912F910F90BE
:100310000FBE0F901F9018951F920F920FB60F925D
:1003200011248F9381E0809374008F910F900FBE02
:100330000F901F9018951F920F920FB60F921124D5
:100340002F933F934F935F936F937F938F939F93DD
:10035000AF93BF93EF93FF93E0917500F091760018
:10036000309709F00995FF91EF91BF91AF919F915F
:100370008F917F916F915F914F913F912F910F904E
:100380000FBE0F901F9018951F920F920FB60F92ED
:1003900011242F933F934F935F936F937F938F938A
:1003A0009F93AF93BF93EF93FF93E0917900F09108
:1003B0007A00309709F00995FF91EF91BF91AF91C5
:1003C0009F918F917F916F915F914F913F912F916D
:1003D0000F900FBE0F901F9018951F920F920FB69F
:1003E0000F9211244F935F936F937F938F939F93FB
:1003F000AF93BF93809174008130E9F580917B00C9
:1004000090917C00A0917D00B0917E0040917F0092
:10041000509180006091810070918200841795074F
:10042000A607B70764F40196A11DB11D80937B0058
:1004300090937C00A0937D00B0937E001CC0841735
:100440009507A607B707B9F4892B8A2B8B2B99F050
:1004500010927B0010927C0010927D0010927E0022
:1004600080918300883020F48F5F8093830003C0E5
:1004700081E080938300BF91AF919F918F917F9195
:100480006F915F914F910F900FBE0F901F90189535
:04049000F894FFCF0E
:10049400000217001F020A001902150014000702C7
:0404A40005011E0030
:00000001FF
