:100000000C9431000C9434080C945D080C946C082A
:100010000C944E000C94C20A0C944E000C944E00AA
:100020000C944E000C94020A0C944E000C944E005A
:100030000C944E000C944E000C944E000C944E0008
:100040000C944E000C944E000C944E000C944E00F8
:100050000C944E00640A6F0A850A7A0A900A9B0A79
:10006000A60A11241FBECFE5D8E0DEBFCDBF11E048
:10007000A0E6B0E0EAECFAE102C005900D92A830EB
:10008000B107D9F721E0A8E0B1E001C01D92A0348A
:10009000B207E1F70E94A0050C94630D0C940000D8
:1000A00080912A01813039F58091080190910901F0
:1000B000A0910A01B0910B0189399105A105B10503
:1000C00064F40196A11DB11D80930801909309016C
:1000D000A0930A01B0930B010895109208011092A9
:1000E000090110920A0110920B0110922A0181E07D
:1000F000809327010895823031F580910801909115
:100100000901A0910A01B0910B018E339105A1055F
:10011000B10564F40196A11DB11D8093080190936F
:100120000901A0930A01B0930B01089510920801F0
:100130001092090110920A0110920B0110922A01EB
:1001400081E080932901089580E10E9484020E9449
:1001500010040E94B30A80E590E00E94BD0A0E944C
:100160009007089563E081E00E94CE0486E790E066
:100170000E94600466E082E00E94CE0484E890E081
:100180000E946004809128018F5F80932801089568
:1001900081E080932A018091270181112FC061E6BF
:1001A00070E080E10E948D0280916100813079F5DC
:1001B00061E670E080E10E948D0280916100811112
:1001C00026C080916000823059F466E00E94CE041F
:1001D0008AE890E00E94600481E0809360000895C6
:1001E0008130A9F466E082E00E94CE0484E890E0C9
:1001F0000E94600482E0809360000895813039F4A9
:1002000010922701809128018F5F80932801089523
:1002100082E080932A0180912901813039F4109283
:100220002901809128018F5F80932801089581E042
:1002300080932A0180912B01873408F466C0809155
:10024000270181112CC08EE190E00E9495020E944E
:10025000DC040E94CA0460E081E00E94CE0480E9D0
:1002600090E00E94600460E082E00E94CE0481EA97
:1002700090E00E94600469E082E00E94CE046091F8
:100280002B0170E080E090E00E9476046BE082E059
:100290000E94CE0489EA90E00E9460042DC0813063
:1002A00059F582E390E00E9495020E94DC040E94CE
:1002B000CA0460E081E00E94CE048CEA90E00E94D3
:1002C000600460E082E00E94CE0481EA90E00E9437
:1002D000600469E082E00E94CE0460912B0170E02E
:1002E00080E090E00E9476046BE082E00E94CE0401
:1002F00089EA90E00E9460048BE291E00E947C0514
:1003000080912B01873408F09ACF1092270108952D
:1003100080912B018F518832A0F58EE190E00E94F0
:1003200095020E94DC040E94CA0460E081E00E9401
:10033000CE0480E990E00E94600460E082E00E94C8
:10034000CE0481EA90E00E94600469E082E00E94AD
:10035000CE0460912B0170E080E090E00E94760472
:100360006BE082E00E94CE0489EA90E00E94600483
:100370008BE291E00E947C0580912B018F518832A5
:1003800060F2089580912B0185518A3008F086C073
:100390000E94ED040E94CA0460E081E00E94CE0445
:1003A0008DEB90E00E94600460E082E00E94CE0449
:1003B00081EA90E00E94600469E082E00E94CE043D
:1003C00060912B0170E080E090E00E9476046BE089
:1003D00082E00E94CE0489EA90E00E94600480914D
:1003E0006000823041F50E94CA0460E081E00E9412
:1003F000CE048EEC90E00E9460040E94FB0260E05C
:1004000082E00E94CE0481EA90E00E94600469E0EC
:1004100082E00E94CE0460912B0170E080E090E0C9
:100420000E9476046BE082E00E94CE0489EA90E0AC
:100430000E94600429C0813039F50E9410030E9497
:10044000CA0460E081E00E94CE048FED90E00E943B
:10045000600460E081E00E94CE0481EA90E00E94A6
:10046000600469E082E00E94CE0460912B0170E09C
:1004700080E090E00E9476046BE082E00E94CE046F
:1004800089EA90E00E9460048BE291E00E947C0582
:1004900080912B0185518A3008F47ACF089580919C
:1004A0002601813081F58BE291E00E947C058091EC
:1004B0002801811103C00E94B2000895813019F40F
:1004C0000E94C8000895823019F40E94080108951E
:1004D0008330C9F480912B01873418F00E941701F2
:1004E000089591EE980F983218F40E9488010895AB
:1004F0009BEE980F9A3018F40E94C201089585313E
:1005000010F40E94C2010895883228F462E00E942B
:10051000A50580E0089581E00895883220F40E94C6
:10052000440780E0089581E00895CF92DF92EF9232
:10053000FF9220E030E048EC52E40E94720B60939E
:1005400038017093390180933A0190933B0120E088
:1005500030E040E853E40E94CE0C6B017C016093D4
:100560003C0170933D0180933E0190933F019B01BC
:10057000AC0160E070E080E893E40E94E90A6093D7
:100580002C0170932D0180932E0190932F01C701B0
:10059000B6010E94BC0961E088E00E94A706609154
:1005A0002C0170912D0180912E0190912F010E94BC
:1005B000BC0960E088E00E94A706FF90EF90DF9002
:1005C000CF90089586E79BE0AFE3B0E480933401D9
:1005D00090933501A0933601B093370184E59EECEA
:1005E000AEE6B0E48093300190933101A0933201E4
:1005F000B093330108950E94E2020E94FE0460E07D
:1006000070E080E291E40E94950260913001709167
:10061000310180913201909133010E947A0908954D
:100620000E94E2020E940F0560E070E080E291E427
:100630000E949502609130017091310180913201E8
:10064000909133010E947A09089580910C018F5F87
:1006500080930C0108950E94A50785E293E00E9413
:10066000FD090E94F90961E080E00E94D4091DBCE7
:100670001CBC08950E94B70710920C018EB5887FAC
:100680008EBD08950E94C90708950E942508089507
:10069000CF93C82F60E081E00E94A70660E082E06F
:1006A0000E94A706C4FB662760F984E00E94A706A3
:1006B000C5FB662760F985E00E94A706C6FB662792
:1006C00060F986E00E94A7066C2F661F6627661FEA
:1006D00087E00E94A70661E083E00E94A70689EFF9
:1006E00090E00197F1F700C0000060E083E00E9415
:1006F000A70689EF90E00197F1F700C000006C2F8A
:10070000617084E00E94A706C1FB662760F985E05E
:100710000E94A706C2FB662760F986E00E94A70632
:10072000C3FB662760F987E00E94A70661E083E0CB
:100730000E94A70689EF90E00197F1F700C0000042
:1007400060E083E00E94A70689EF90E00197F1F74F
:1007500000C00000CF910895CF93C82F61E081E0E1
:100760000E94A70660E082E00E94A706C4FB6627FD
:1007700060F984E00E94A706C5FB662760F985E062
:100780000E94A706C6FB662760F986E00E94A706BE
:100790006C2F661F6627661F87E00E94A70661E030
:1007A00083E00E94A70689EF90E00197F1F700C06F
:1007B000000060E083E00E94A70689EF90E00197C7
:1007C000F1F700C000006C2F617084E00E94A70662
:1007D000C1FB662760F985E00E94A706C2FB662779
:1007E00060F986E00E94A706C3FB662760F987E0F0
:1007F0000E94A70661E083E00E94A70689EF90E0CF
:100800000197F1F700C0000060E083E00E94A706B6
:1008100089EF90E00197F1F700C00000CF910895B3
:1008200060E081E00E94A50560E082E00E94A505ED
:1008300060E083E00E94A50560E084E00E94A505D9
:1008400060E085E00E94A50560E086E00E94A505C5
:1008500060E087E00E94A50583ED90E30197F1F742
:1008600000C0000082E00E94480389EF90E00197F9
:10087000F1F700C0000088E20E94480389EF90E091
:100880000197F1F700C000008CE00E94480389EF57
:1008900090E00197F1F700C0000081E00E9448035A
:1008A00083EF91E00197F1F700C0000086E00E941D
:1008B000480389EF90E00197F1F700C00000089528
:1008C0000F931F93CF93FC018081882359F08F01F0
:1008D000C0E00E94AC03CF5FF801EC0FF11D8081F6
:1008E0008111F7CFCF911F910F9108958F929F9211
:1008F000AF92BF92EF92FF921F93CF93DF93CDB74A
:10090000DEB760970FB6F894DEBF0FBECDBF61159E
:1009100071058105910521F480E30E94AC032AC092
:1009200010E00F2EFAE08F2E912CA12CB12CF02D7F
:10093000EE24E394F12CEC0EFD1EE10EF11CA5015A
:1009400094010E943B0D605DF70160831F5F622F81
:10095000732F842F952F611571058105910541F73E
:10096000112341F0FE01E10FF11D80810E94AC03D3
:100970001150C1F760960FB6F894DEBF0FBECDBF21
:10098000DF91CF911F91FF90EF90BF90AF909F901C
:100990008F90089581E00E9448030895813029F4E2
:1009A00080E8860F0E9448030895823021F480EC8D
:1009B000860F0E944803089560E080E00E94A70629
:1009C00061E081E00E94A70660E082E00E94A70645
:1009D00061E083E00E94A706089560E080E00E9445
:1009E000A70660E081E00E94A70660E082E00E9426
:1009F000A70660E083E00E94A706089561E080E01A
:100A00000E94A70660E081E00E94A70660E082E005
:100A10000E94A70661E083E00E94A706089560E0B7
:100A200080E00E94A70661E081E00E94A70661E0E5
:100A300082E00E94A70660E083E00E94A706089576
:100A40000F931F93CF93DF9380911501811114C0F1
:100A50008CB59DB5A0E0B0E0809311019093120198
:100A6000A0931301B093140162E080E00E9442035E
:100A700081E0809315013BC08130C9F58CB59DB5EF
:100A8000A0E0B0E080930D0190930E01A0930F01C0
:100A9000B093100110921501109218011DBC1CBCDE
:100AA000C0911601D091170180910D0190910E0116
:100AB000A0910F01B091100100911101109112014C
:100AC0002091130130911401BC01CD01601B710B09
:100AD000820B930B2AE330E040E050E00E943B0D94
:100AE000288339834A835B8380E00E943A03DF9145
:100AF000CF911F910F9108952091180121111FC0CE
:100B0000909317018093160160E275E080E00E94E7
:100B1000450363E080E00E94420380E00E942B03D3
:100B200061E088E00E94A70683E08A95F1F7000063
:100B300060E088E00E94A70681E080931801089594
:100B40000E94A4000E944F02FDCF982F9695969583
:100B50009695953008F0F9C08770613031F008F44F
:100B6000A4C0623009F451C0EFC09130C1F028F048
:100B7000923039F19330B9F1E7C04AB321E030E067
:100B8000B90102C0660F771F8A95E2F7CB01809505
:100B9000942F98239ABB9BB389238BBBD5C047B3B3
:100BA00021E030E0B90102C0660F771F8A95E2F7B5
:100BB000CB018095942F982397BB98B3892388BB4A
:100BC000C3C044B321E030E0B90102C0660F771F13
:100BD0008A95E2F7CB018095942F982394BB95B327
:100BE000892385BBB1C041B321E030E0B90102C027
:100BF000660F771F8A95E2F7CB018095942F982393
:100C000091BB92B3892382BB9FC09130C1F028F081
:100C1000923039F19330B9F197C04AB321E030E016
:100C2000B90102C0660F771F8A95E2F7CB01962FB4
:100C3000909594239ABB9BB3892B8BBB85C047B3FC
:100C400021E030E0B90102C0660F771F8A95E2F714
:100C5000CB01962F9095942397BB98B3892B88BB93
:100C600073C044B321E030E0B90102C0660F771FC2
:100C70008A95E2F7CB01962F9095942394BB95B378
:100C8000892B85BB61C041B321E030E0B90102C0CE
:100C9000660F771F8A95E2F7CB01962F90959423E4
:100CA00091BB92B3892B82BB4FC09130C1F028F029
:100CB000923039F19330B9F147C04BB321E030E0C5
:100CC000B90102C0660F771F8A95E2F7CB01962F14
:100CD000909594239BBB9AB3892B8ABB35C048B3AC
:100CE00021E030E0B90102C0660F771F8A95E2F774
:100CF000CB01962F9095942398BB97B3892B87BBF4
:100D000023C045B321E030E0B90102C0660F771F70
:100D10008A95E2F7CB01962F9095942395BB94B3D7
:100D2000892B84BB11C042B321E030E0B90102C07D
:100D3000660F771F8A95E2F7CB01962F9095942343
:100D400092BB91B3892B81BB089582E00895982FBF
:100D5000969596959695953008F08EC0633008F07C
:100D60008DC08770613009F040C09130A1F028F04B
:100D70009230F9F0933059F183C04BB321E030E069
:100D8000B90102C0660F771F8A95E2F7CB01842B69
:100D90008BBB80E0089548B321E030E0B90102C088
:100DA000660F771F8A95E2F7CB01842B88BB80E022
:100DB000089545B321E030E0B90102C0660F771F06
:100DC0008A95E2F7CB01842B85BB80E0089542B37E
:100DD00021E030E0B90102C0660F771F8A95E2F783
:100DE000CB01842B82BB80E00895611144C0913017
:100DF000A9F028F0923009F1933071F143C04BB360
:100E000021E030E0B90102C0660F771F8A95E2F752
:100E1000CB01809584238BBB80E0089548B321E00B
:100E200030E0B90102C0660F771F8A95E2F7CB0167
:100E30008095842388BB80E0089545B321E030E0AD
:100E4000B90102C0660F771F8A95E2F7CB01809542
:100E5000842385BB80E0089542B321E030E0B901EE
:100E600002C0660F771F8A95E2F7CB018095842335
:100E700082BB80E00895089582E0089583E008959C
:100E800080E0089580E00895982F96959695969520
:100E9000953008F041C087709130A1F028F0923071
:100EA000F9F0933059F13AC029B330E0A90102C0FA
:100EB000559547958A95E2F7CA018170FB018083B9
:100EC00080E0089526B330E0A90102C0559547950A
:100ED0008A95E2F7CA018170FB01808380E0089562
:100EE00023B330E0A90102C0559547958A95E2F7F2
:100EF000CA018170FB01808380E0089520B330E057
:100F0000A90102C0559547958A95E2F7CA018170FB
:100F1000FB01808380E0089582E0089580E00895D9
:100F20000F931F93CF93DF93C2E6D0E006E710E064
:100F3000698188810E94A5052296C017D107C1F753
:100F4000DF91CF911F910F910895813041F018F0FA
:100F5000823049F008958BB780648BBF08958BB7BA
:100F600080688BBF08958BB780628BBF08958130F6
:100F700041F018F0823049F008958BB78F7B8BBF1A
:100F800008958BB78F778BBF08958BB78F7D8BBFFD
:100F90000895813049F120F0823009F449C0089564
:100FA000613069F028F0623089F06330B1F0089563
:100FB00085B78E7F85BF85B78D7F85BF089585B73F
:100FC000816085BF85B78D7F85BF089585B78E7F8A
:100FD00085BF85B7826085BF089585B7816085BF6D
:100FE00085B7826085BF0895613069F028F062306E
:100FF00089F06330B1F0089585B78B7F85BF85B7E1
:10100000877F85BF089585B7846085BF85B7877F53
:1010100085BF089585B78B7F85BF85B7886085BFFD
:10102000089585B7846085BF85B7886085BF0895BA
:10103000623019F0633029F0089584B78F7B84BF44
:10104000089584B7806484BF0895882319F082309E
:1010500051F405C070931D0160931C0108957093B5
:101060001B0160931A0108951F920F920FB60F9201
:1010700011242F933F934F935F936F937F938F939D
:101080009F93AF93BF93EF93FF93E0911C01F09177
:101090001D01309709F00995FF91EF91BF91AF9134
:1010A0009F918F917F916F915F914F913F912F9180
:1010B0000F900FBE0F901F9018951F920F920FB6B2
:1010C0000F9211248F9381E0809319018F910F90DB
:1010D0000FBE0F901F9018951F920F920FB60F9290
:1010E00011242F933F934F935F936F937F938F932D
:1010F0009F93AF93BF93EF93FF93E0911A01F09109
:101100001B01309709F00995FF91EF91BF91AF91C5
:101110009F918F917F916F915F914F913F912F910F
:101120000F900FBE0F901F90189580910101813094
:10113000F1F028F0823099F0843049F020C083B774
:101140008F7B83BF83B7877F83BF84E0089583B796
:10115000806483BF83B7877F83BF84E0089583B7AC
:101160008F7B83BF83B7886083BF84E0089583B794
:10117000806483BF83B7886083BF84E0089581E083
:10118000089580910201823009F128F4882341F00A
:10119000813089F03CC0853021F1863069F137C05B
:1011A00083B7816083BF83B78D7F83BF83B78B7F16
:1011B00083BF84E0089583B7826083BF83B78E7F47
:1011C00083BF83B78B7F83BF84E0089583B781603B
:1011D00083BF83B7826083BF83B78B7F83BF84E085
:1011E000089583B7846083BF83B78D7F83BF83B740
:1011F0008E7F83BF84E0089583B7816083BF83B708
:101200008D7F83BF83B7846083BF84E0089580E0CF
:101210000895CF92DF92EF92FF926B017C0120E064
:1012200030E040E853E40E946D0B882394F420E002
:1012300030E0A901C701B6010E94C90C88235CF007
:10124000C701B6010E94560B0E94E40B62BF84E006
:1012500003C083E001C083E0FF90EF90DF90CF9068
:1012600008958F929F92AF92BF92CF92DF92EF92AA
:10127000FF924B015C0120E030E0A9010E94C90C03
:101280001816ECF4C12CD12C760108B600FEFDCF67
:1012900088B7816088BF20E030E040E85FE3C701A5
:1012A000B6010E94EA0A6B017C019B01AC01C501F9
:1012B000B4010E94C90C181644F384E012C020E067
:1012C00030E0A901C501B4010E946D0B181644F06D
:1012D00008B600FEFDCF88B7816088BF84E001C0FA
:1012E00082E0FF90EF90DF90CF90BF90AF909F9003
:1012F0008F90089520E030E04AE754E40E94720B9A
:1013000020910201222319F0263091F021C02DEB0B
:1013100037E346E058E30E94720B0E94560B60933D
:10132000220170932301809324019093250110C022
:101330002DEB37E346E05DE30E94720B0E94560BF3
:1013400060932201709323018093240190932501DF
:101350000E94950860E070E0CB010E9409090E949C
:10136000C108609122017091230180912401909124
:1013700025010E9431090895CF930E94560B0E94C7
:10138000E40BC62F0E949508C2BF0E94C10860E00E
:1013900070E080E89FE30E94310913BE12BE88B757
:1013A000816088BFCF910895882319F0833071F050
:1013B00019C08FB58E7F8FBD8FB58D7F8FBD8EB5D8
:1013C000877F8EBD8EB58F7E8EBD0CC08FB5816040
:1013D0008FBD8FB582608FBD8EB588608EBD8EB596
:1013E00080618EBD8EB5887F8EBD8EB5682B6EBD3B
:1013F000089589B7846089BF0895909321018093EF
:10140000200108951F920F920FB60F9211242F936F
:101410003F934F935F936F937F938F939F93AF937C
:10142000BF93EF93FF93E0912001F091210130975A
:1014300009F00995FF91EF91BF91AF919F918F9125
:101440007F916F915F914F913F912F910F900FBEC0
:101450000F901F901895809105018130F1F028F0D0
:10146000823099F0843049F020C085B58F7B85BDEE
:1014700085B5877F85BD84E0089585B5806485BD89
:1014800085B5877F85BD84E0089585B58F7B85BD53
:1014900085B5886085BD84E0089585B5806485BD87
:1014A00085B5886085BD84E0089581E00895E09168
:1014B00006018E2F90E08730910508F052C0FC01A4
:1014C000E65DFF4F0C945D0D85B5816085BD85B5EA
:1014D0008D7F85BD85B58B7F85BD84E0089585B5FD
:1014E000826085BD85B58E7F85BD85B58B7F85BDC9
:1014F00084E0089585B5816085BD85B5826085BD30
:1015000085B58B7F85BD84E0089585B5846085BDF4
:1015100085B58D7F85BD85B58E7F85BD84E00895B9
:1015200085B5816085BD85B58D7F85BD85B58460B8
:1015300085BD84E0089585B5846085BD85B58E7FC1
:1015400085BD85B5826085BD84E0089585B58160DF
:1015500085BD85B5826085BD85B5846085BD84E027
:10156000089580E00895789489B7806489BF0E94C7
:101570002B0A14BC0E94570A089590931F01809370
:101580001E0108951F920F920FB60F9211242F93F0
:101590003F934F935F936F937F938F939F93AF93FB
:1015A000BF93EF93FF93E0911E01F0911F01099506
:1015B000FF91EF91BF91AF919F918F917F916F912B
:1015C0005F914F913F912F910F900FBE0F901F9001
:1015D00018955058BB27AA270E94010B0C94770C32
:1015E0000E94690C38F00E94700C20F039F49F3F83
:1015F00019F426F40C94660C0EF4E095E7FB0C94B9
:10160000370CE92F0E94880C58F3BA17620773074A
:101610008407950720F079F4A6F50C94C20C0EF41B
:10162000E0950B2EBA2FA02D0B01B90190010C01F2
:10163000CA01A0011124FF27591B99F0593F50F40A
:10164000503E68F11A16F040A22F232F342F442762
:10165000585FF3CF469537952795A795F04053955A
:10166000C9F77EF41F16BA0B620B730B840BBAF02A
:101670009150A1F0FF0FBB1F661F771F881FC2F795
:101680000EC0BA0F621F731F841F48F487957795A9
:101690006795B795F7959E3F08F0B0CF9395880F63
:1016A00008F09927EE0F9795879508950E94AA0C48
:1016B00090F09F3748F4911116F40C94C30C60E03D
:1016C00070E080E89FE3089526F01B16611D711DF0
:1016D000811D0C943D0C0C94580C0E94130C08F4C2
:1016E00081E008950E94860B0C94770C0E94700C88
:1016F00058F00E94690C40F029F45F3F29F00C94E7
:10170000370C51110C94C30C0C94660C0E94880C7D
:1017100068F39923B1F3552391F3951B550BBB2720
:10172000AA2762177307840738F09F5F5F4F220F65
:10173000331F441FAA1FA9F335D00E2E3AF0E0E85C
:1017400032D091505040E695001CCAF72BD0FE2FA6
:1017500029D0660F771F881FBB1F2617370748073A
:10176000AB07B0E809F0BB0B802DBF01FF279358F2
:101770005F4F3AF09E3F510578F00C94370C0C9473
:10178000C30C5F3FE4F3983ED4F386957795679555
:10179000B795F7959F5FC9F7880F911D9695879527
:1017A00097F90895E1E0660F771F881FBB1F621746
:1017B00073078407BA0720F0621B730B840BBA0B04
:1017C000EE1F88F7E09508950E94900C88F09F57CF
:1017D00098F0B92F9927B751B0F0E1F0660F771F55
:1017E000881F991F1AF0BA95C9F714C0B13091F04B
:1017F0000E94C20CB1E008950C94C20C672F782FA0
:101800008827B85F39F0B93FCCF38695779567950F
:10181000B395D9F73EF490958095709561957F4F7B
:101820008F4F9F4F0895990F0008550FAA0BE0E8BE
:10183000FEEF16161706E807F907C0F01216130692
:10184000E407F50798F0621B730B840B950B39F4D2
:101850000A2661F0232B242B252B21F408950A2638
:1018600009F4A140A6958FEF811D811D089597F978
:101870009F6780E870E060E00895882371F4772323
:1018800021F09850872B762F07C0662311F49927F3
:101890000DC09051862B70E060E02AF09A95660F9B
:1018A000771F881FDAF7880F9695879597F908951F
:1018B0009F3F31F0915020F4879577956795B795C4
:1018C000880F911D9695879597F908959FEF80EC65
:1018D000089500240A941616170618060906089596
:1018E00000240A9412161306140605060895092EFC
:1018F0000394000C11F4882352F0BB0F40F4BF2B6B
:1019000011F460FF04C06F5F7F4F8F4F9F4F0895AA
:1019100057FD9058440F551F59F05F3F71F04795A0
:10192000880F97FB991F61F09F3F79F08795089585
:10193000121613061406551FF2CF4695F1DF08C0A4
:10194000161617061806991FF1CF869571056105C1
:10195000089408950E94900CA0F0BEE7B91788F48F
:10196000BB279F3860F41616B11D672F782F882784
:10197000985FF7CF869577956795B11D93959639C2
:10198000C8F30895E894BB2766277727CB0197F91A
:1019900008950E94130C08F48FEF08950E94E10C43
:1019A0000C94770C0E94690C38F00E94700C20F0A7
:1019B000952311F00C94370C0C94660C11240C94A4
:1019C000C30C0E94880C70F3959FC1F3950F50E0F3
:1019D000551F629FF001729FBB27F00DB11D639FE1
:1019E000AA27F00DB11DAA1F649F6627B00DA11D87
:1019F000661F829F2227B00DA11D621F739FB00D2D
:101A0000A11D621F839FA00D611D221F749F33279C
:101A1000A00D611D231F849F600D211D822F762F35
:101A20006A2F11249F5750409AF0F1F088234AF012
:101A3000EE0FFF1FBB1F661F771F881F915050407E
:101A4000A9F79E3F510580F00C94370C0C94C30C01
:101A50005F3FE4F3983ED4F3869577956795B79505
:101A6000F795E7959F5FC1F7FE2B880F911D96951F
:101A7000879597F90895A1E21A2EAA1BBB1BFD01B9
:101A80000DC0AA1FBB1FEE1FFF1FA217B307E4075D
:101A9000F50720F0A21BB30BE40BF50B661F771FB5
:101AA000881F991F1A9469F7609570958095909595
:101AB0009B01AC01BD01CF010895EE0FFF1F059002
:0A1AC000F491E02D0994F894FFCF93
:101ACA0002010800000012000000000000000000EF
:101ADA00000000000000536574204465662E205201
:101AEA006F742E005269676874004C656674200032
:101AFA0053706565643A333025204469723A20464A
:101B0A0000446973742E3A2000636D005370656552
:101B1A00643A353025204469723A2046005370658C
:101B2A0065643A333025204469723A205300537071
:101B3A006565643A333025204469723A205200536D
:101B4A00706565643A333025204469723A204C0046
:101B5A0053706565643A333025204469723A2042ED
:081B6A00000006000000060067
:00000001FF
